:107E000011248091FA08813471F48091FB08833445
:107E100051F48091FC08823431F42091FD0881E016
:107E200090E02C3409F080E0C82F882329F02091BD
:107E3000FE0881E090E0211180E0382E1092FA08CF
:107E40001092FB081092FC081092FD081092FE0898
:107E500024B614BE80E07ED0C11103C021FC01C055
:107E6000CFC08FE077D0E0ECF0E0AFE7BFEF48990C
:107E7000FECF9096489BFDCFB4831197F1F7B2E007
:107E8000B083B8E1B18354D0C82F823569F468D08B
:107E9000E0E8FDE7A89583E087D085D0E058F109B8
:107EA000C8F788E73CD0EFCF8D7FD9F44ED0D82FDC
:107EB000A0E0B1E03DD08D93DA13FCCFA0E0B1E0BB
:107EC0004FD0C1110CC0F2BDE1BD8D9180BDFA9AB9
:107ED000F99A3196F999FECFD150A9F7E2CF48D05F
:107EE000E0CFC33041F431D0C82F3AD0859117D0BC
:107EF000C150E1F7D6CFC13061F427D0C82F30D0C0
:107F0000F2BDE1BDF89A80B50AD03196C150C1F7F3
:107F1000C8CFC13511F488E01DD022D0C2CF3110B6
:107F200006C09091C00095FFFCCF8093C6000895D5
:107F3000002CCC2C8091C00087FFFCCF84FD13C0A7
:107F4000A8958091C600112C0895F2DFE82FF0DF8C
:107F5000F82FEECF98E19093600080936000089531
:107F6000E7DF803219F088E0F5DFFFCF80EED7CF72
:107F7000E07870E89F01FE37E0F490E045915D9174
:107F8000542345139160A713F9CFF901A0E090FFA6
:107F900010C081E00D901D9007D03296A713FACF44
:107FA000F90185E001D081E187BFE89517B610FCA3
:067FB000FDCF112408952D
:067FFA0004000895E140BF
:0400000300007E007B
:00000001FF
